:020000041000EA
:1000000000B5324B212058609868022188439860DF
:10001000D860186158612E4B002199600221596106
:100020000121F02299502B49196001219960352056
:1000300000F044F80222904214D00621196600F024
:1000400034F8196E01211966002018661A6600F04E
:100050002CF8196E196E196E052000F02FF8012189
:100060000842F9D1002199601B49196000215960AB
:100070001A491B48016001219960EB211966A021F2
:10008000196600F012F800219960164914480160C1
:100090000121996001BC002800D000471248134993
:1000A000086003C880F30888084703B5996A0420EC
:1000B0000142FBD001200142F8D103BD02B5186610
:1000C0001866FFF7F2FF186E186E02BD00000240BE
:1000D000000000180000070000035F00212200005C
:1000E000F4000018222000A00001001008ED00E03C
:1000F00000000000000000000000000074B24E7A12
:1001000000200420F7010010C3010010C5010010F9
:10011000C1010010C1010010C1010010C101001097
:10012000C1010010C1010010C1010010C701001081
:10013000C1010010C1010010C9010010CB01001065
:10014000CD010010CD010010CD010010CD01001037
:10015000CD010010CD010010CD010010CD01001027
:10016000CD010010CD010010CD010010CD01001017
:10017000CD010010CD010010CD010010CD01001007
:10018000CD010010CD010010CD010010CD010010F7
:10019000CD010010CD010010CD010010CD010010E7
:1001A000CD010010CD010010CD010010CD010010D7
:1001B000CD010010CD010010CD010010CD010010C7
:1001C00000BE00BE00BE00BE00BE00BEEFF3058054
:1001D000103800BEF2EB8871D8020010F80200104F
:1001E0003402001090A31AE700202249086006C8D4
:1001F00081F30888104720480068002835D10DA4F5
:100200000ECC002902D000F012F8F9E71B491C4A75
:10021000002000E001C19142FCD11A4988471A49E7
:1002200088471A49884700BEFDE701C901C29A42C2
:10023000FBD37047F8020010C000002080AA002005
:10024000B8AC001080AA0020D8DA002010DD001021
:10025000000004200000042010DD00100010042025
:1002600000100420000000007047094800F014F856
:100270000047000008ED00E0000000D0D8DA0020C0
:10028000302D022051350020B90100200D3500200D
:10029000575600000000000001B40248844601BC2B
:1002A000604700BFE147002006005250ABB36053E7
:1002B0007CC7002006005250861C03028CC7002019
:1002C000060052505422A29D98C7002005005250AB
:0802D000DE65F46810DD00108A
:1002D800CC020010C0020010B4020010A4C7002015
:1002E800A8020010B0C70020BCC70020A0CD002085
:1002F800F8B5C04610B5064C2378002B07D1054B3E
:10030800002B02D0044800E000BF0123237010BD79
:10031800D8DB00200000000080AA0020044B10B5A4
:10032800002B03D00349044800E000BF10BDC046BD
:1003380000000000DCDB002080AA002010B5192096
:1003480002F0A2FFD0231B06802292045A6210BD3D
:1003580010B50FE005F084FF002801D1012318E053
:10036800002316E0D0231B06802292049A61012004
:1003780009F08EFE01200021404206F0BDFAD0238C
:100388001B065B689B01EDD405F062FF0028E1D1F4
:100398000023002BE6D0D0231B06802292045A614A
:1003A800E5E7000070B512E00D4D4022290000205D
:1003B80007F042FA0B4C2100280001F0C5F90200B1
:1003C8002100002007F04CFA002007F065FA002011
:1003D80007F024FA0028E7D1012009F059FEF6E7D2
:1003E80010DC002050DC002010B582B008F0BFF807
:1003F80000F052FB00F03CFA07F076FB01F006FA39
:10040800FFF79CFF80246400114B019303230093A2
:10041800002322000F49104809F086FB0F4B019377
:1004280002230093002322000D490E4809F07CFBAB
:100438000D4B019301230093002322000B490C4824
:1004480009F072FB09F0F6FB002002B010BDC046AF
:10045800F02B0120ACB4002069070020A02B01205C
:10046800B4B400202101002024220120B8B40020C7
:10047800750100200020704770B5180004AB1B8878
:100488001A1C402B00D9402294B2054D290001F0D6
:100498005BF923002A000021002006F055FF70BDFB
:1004A80050DC0020F0B583B004001500012923D1E9
:1004B80013785B069B0F022B01D000201DE05378B8
:1004C800012B01D0002018E012796B791B0213432D
:1004D800072B01D0002010E06B469F1D084E02221A
:1004E8003100380005F0E4F93B883200083A290069
:1004F800200006F023FB00E0012003B0F0BDC04659
:1005080038B600207047000010B50978014803F09C
:10051800B3F9C046BCB4002010B5014803F0ACF9EB
:10052800ECB4002000487047F8B500200048704738
:100538000CB600200048704794B5002070B500281C
:100548000DD0062824D88000124BC55828000AF080
:100558007FFBC0B21F2800D91F2000230EE00D4BDF
:1005680019680D480222023005F0A2F9012007E0BF
:100578005A1CEC5C5100084BCC52D3B29842F7D8C5
:1005880001304000C0239B0003430348038070BD33
:100598000020FCE7CCD90020F0DD0020004870479F
:1005A80070B50020044B802252049A60024B9B686D
:1005B800DB01FBD57047C0460000205010B5040091
:1005C800052003F001F8FA21890004F075FA2100EA
:1005D80004F072FA8308032800D801231B04024997
:1005E800C8228B5010BDC046000020500A4B1B6823
:1005F800421EFF200240013010435B021843074BA4
:100608005B68DB03FBD4054B1861044B5B68DB03B9
:10061800FBD4024B19617047982601200000205036
:100628000A4B1B68421EFF2010405B021843084B10
:100638005B68DB03FBD4064B1861054B5B68DB0387
:10064800FBD4034B00221A617047C046982601204C
:100658000000205001000D4B1B6808330138FF22B1
:1006680002405B021A430A4B5B68DB03FBD4084B6E
:100678001A61074B5B68DB05FBD4054B186A1F2919
:1006880002D82023591AC8407047C046982601202E
:100698000000205010B5074B1A6803325202FF239E
:1006A8001A43054B5B68DB03FBD4034B1A61FFF766
:1006B80079FF10BD982601200000205010B5074B87
:1006C8001B6803335B02064A1A43064B5B68DB036D
:1006D800FBD4044B1A61FFF765FF10BD9826012073
:1006E800FF01000000002050F0B5CE46474680B517
:1006F8008DB0444B5B68002B04D00DB0C0BCB9462C
:10070800B046F0BD404C4149200007F0D3FF05003A
:100718003C4F38601022002108A805F0C3F8802358
:100728005B020893F8235B0209938026F6020A9677
:10073800C0231B030A93102208A904A805F0B8F8DF
:10074800EB1C98462A000A32059B0393304B039909
:100758000B404146C9010B43120313430593079A03
:100768000392D200D2088021C9050A430792294A78
:1007780013400B430593102204A908A805F098F824
:100788000B9B0393244A1A4080231B0113430B93AA
:10079800224A1A40224B13430B93224A1A40224BF7
:1007A80013430B93214A1340C022520213430B9365
:1007B800012399460093013302220021200007F00B
:1007C800C1FF0A9B03931A4A1A4080231B03134351
:1007D8000A93184A134033430A9308AB2A000021AE
:1007E800200008F001F8FA208000FFF7E7FED82380
:1007F8004246E25023684A469343134323607A6093
:100808007BE7C0469826012000002050E4B600206F
:100818007F00FEFFFFFFFF9FFF83FFFFE0FF0FFC4E
:10082800030010001FFCFFE360000004FF7FF0FFDF
:10083800FFFFF5C1FFFF0AFE10B50A4B5B68002BEE
:1008480000D110BDFFF726FF074803680122934334
:100858000360044C2268054907F048FF00236360E1
:10086800EFE7C0469826012000002050E4B600209B
:1008780010B50221042002F0A7FC0221052002F095
:10088800A3FC00220121042002F0C0FC0022012167
:10089800052002F0BBFCE1214902024802F052FDAA
:1008A80010BDC0460080034010B582B0002404E0AB
:1008B8006B46DA79344B1A550400344B9B69102186
:1008C8000A001A40194210D13F2C0ED8601C6B4602
:1008D800D91D002AECD12D4B9B69DB06FBD42B4B91
:1008E8001B680B7001320131F3E7002006F008FAAB
:1008F80000283ED0264B01221A60002C0AD1002085
:1009080006F022FA3F281AD8002006F01DFA00281F
:100918002DD015E0002006F0D5FA84420AD822002E
:10092800002AECDD1849002006F0AEFA002006F097
:1009380047FAE4E7002006F0C5FA0200F0E7402095
:100948000200102800D91022124C2100002006F0C5
:100958000BFA0021220008E00C4B9B699B06FBD494
:1009680014780A4B1C60013101328142F4D302B081
:1009780010BD074B1B68002BF9D0002006F0B2FA17
:10098800034B00221A60F2E7482901200080034047
:10099800282C0220A42B012010B509F097F9084B48
:1009A8001860FFF781FF074B1968054809F014FB29
:1009B8000028F6D109F08AF9014B1860F1E7C04622
:1009C8007C260120E8D9002070B50C0009786378EE
:1009D8001B020B43A27812041343E178090619435A
:1009E80000D101311D4804F067F805001C4B186858
:1009F80009F0DCFB312D2CD93221280004F05CF8F9
:100A0800184B186081000918C900174B994222D861
:100A1800180004F051F8154B1860154D280002F025
:100A28003FFC002006F05EFA002006F0B5F92178B8
:100A380063781B020B43A27812041343E17809067A
:100A48001943280002F07EFC054B186809F0A0F84D
:100A580070BD0120D4E70120DDE7C04600688909A0
:100A6800F02B0120E8D90020204E00002822012088
:100A78000080034010B5002901D1002A04D0054B9D
:100A8800186809F085F810BD024B186809F08EFB4C
:100A9800F9E7C046F02B012070B50C4805F05EF868
:100AA800002203E037300A49885401320F2A0BDC50
:100AB800D30F9B185B10054CE15C08090D01E55448
:100AC8009F29EFD83030EEE770BDC046E42B0120F7
:100AD800F82B0220F8B504000D00124B5A68124B8F
:100AE8001B689A4217D0013253019B1A9900891842
:100AF80009010E4803F0E0FFFFF760FD094B5A6853
:100B0800094B1A6007E026006F1C29783000FFF7B0
:100B18006DFDA41B3D00002C03D0082CF3D908263A
:100B2800F2E7F8BDF4DB0020F421012040597307F7
:100B3800F8B507000D0016001D4B5A681D4B1B68C1
:100B48009A4208D13F231C003C403B4200D140243C
:100B58003B0617D424E0013253019B1A99008918E7
:100B68000901154803F0A8FFFFF728FD104B5A6844
:100B7800104B1A60E6E725002800FFF76BFD307080
:100B8800641B0136002C11D0082CF4D90825F3E792
:100B980026006F1C29783000FFF728FDA41B3D00B4
:100BA800002C03D0082CF3D90826F2E7F8BDC0467C
:100BB800F4DB0020F421012040597307F0B5C64644
:100BC80000B506000C00584B5A68584B1B689A42EF
:100BD80003D10123002501211BE0013253019B1A97
:100BE800990089180901524803F066FFFFF7E6FCEF
:100BF8004D4B5A684D4B1A60EBE75A1E3000D040F7
:100C0800020001200240100098400143C9B2AD180B
:100C18000133042BF1D96D0120231D400D438021A0
:100C280049422943C9B20820FFF7E0FC3E4F387E0D
:100C38000330FFF70FFD3B7EFF2505401D41EDB258
:100C4800012D0BD0022D52D0042D50D02133180085
:100C5800FFF700FD280080BCB846F0BDB2072DD5CF
:100C68002020FFF7F7FC07000120FFF7F3FC804680
:100C7800380003F0C7FEFF23424613404340DB071A
:100C880000D50735002C00D02760274B187EFFF7CA
:100C9800C7FC330603D5274B9A6A234B9A60224B2D
:100CA8001C7B002CD6D0002CD4D080235B009C4227
:100CB80015D800212000FFF799FCCBE71800FFF7B3
:100CC800AFFC246821002020FFF790FC200003F0EF
:100CD80099FE012101400120FFF788FCD9E7802017
:100CE80000214000FFF782FC013CFF3CDBE70E4B94
:100CF8005B7E002B01D0B30711D40B4C207EFFF78D
:100D08008FFC637E002BA5D0B307A3D4002120203D
:100D1800FFF76CFC00210120FFF768FC9AE721200F
:100D2800FFF798FCE9E7C046F4DB0020F421012036
:100D3800405973070040054010B50B00F1281DD03D
:100D480009D9FE2824D0FF280FD140220A7000229A
:100D58004A70022011E0042809D0F02803D131227A
:100D68000A70012009E0002007E0002005E00622C3
:100D78000949180004F09CFD062010BD40220A70A5
:100D880002324A70333A8A700022CA700420F4E7AB
:100D980002220A700120F0E704B7002003784078A7
:100DA800000218434201121A93001B18013BFDD19F
:100DB80000230B7000487047010002000378012BE4
:100DC80003D9FF230B700248704700230B70FAE722
:100DD80001000200002343700370022070470000E6
:100DE800F0B5CE46474680B5057842788378C47812
:100DF800240223430479240423434079000603434F
:100E0800012010400224144004261640B44620272E
:100E1800174052B29146002B23D0154EB34200D949
:100E28003300144EB26A904605E0124EB66A424646
:100E3800B61A9E4215D2002801D0002DF5D1002CFB
:100E480001D06E08F1D16646002E01D0AE08ECD173
:100E5800002F01D06E09E8D14A46002A01DAEE09CE
:100E6800E3D100230B700448C0BCB946B046F0BDBE
:100E7800C0C62D00004005400100060010B50C005A
:100E8800017843781B02194383781B041943C378FC
:100E98001B0619430AD00E4B99420AD90D4B012261
:100EA8005A705A60002323700B4810BDFF2323702B
:100EB800FAE7084B00225A70054BC81803F0FCFDEE
:100EC800012803D90138034B5860EBE70120FAE702
:100ED8009FACB903F4DB002001000400027803236F
:100EE8001340013304480376920801231A404276DE
:100EF80000230B7001487047F4DB0020010001005B
:100F080030B5FF230B70411C0278FE3B06E007302A
:100F1800C008421C89181B1801332A00551E002AD4
:100F280007D00A783F24200010401442EFD1402017
:100F3800EDE718040123184330BD0078FF230B7038
:100F480001300004FE3B184370470000FF230B707C
:100F5800004870470100010010B50278074B1A736A
:100F680042788478240222431A82C27800790002E7
:100F780002435A8200230B70014810BDF4DB0020A5
:100F88000100050070B5831C427801E00533013A81
:100F9800002A09D05D1C1C78A607F7D5E40601D500
:100FA8000533F4E72B00F2E70A704A70181A0004B8
:100FB8000223184370BD000070B50D000478002CA2
:100FC80003D0012C02D0002408E00124054B0122A3
:100FD8001A70FFF789FB044B00221A602C70034833
:100FE80070BDC046F4DB0020F4210120010001009F
:100FF80070B504000025034B1D70FFF71DFC25701C
:10100800012070BDF4DB002070B50D00411C047890
:10101800002C01D10134FF342000FFF75BFD0023D1
:101028002B700734E008013000040124204370BD10
:10103800F8B5DE4657464E464546E0B54B1C994640
:1010480000230B70421C037801218A46884616E06B
:101058000734E4086BB29B46002B1CDBFFF72EFB22
:101068004A4639002800FFF763FD002E16D05B467C
:10107800002B16DB3A194444631C984633005E1E65
:10108800002B15D0571C15783F231C002C402B42F1
:10109800DED14024DCE7FFF7FDFAE1E7FFF70EFBBE
:1010A800E5E701239C46E044A144A2443A00E5E771
:1010B8004346180453461843F0BCBB46B246A946FB
:1010C800A046F8BDF0B5DE4657464E464546E0B563
:1010D80087B002900A00039102329246C44B002264
:1010E8001A70861C43789846002301930093934610
:1010F80044E1140005A92800FFF760FD022839D152
:10110800621E002C38D0BA4B1B78002BF1D003009C
:1011180014E0140005A90E20FFF750FD02280AD19B
:10112800621E002C23D0B24B1B78002BF1D0030099
:101138000022009202E0030000220092012B00D05E
:1011480091E1059A51460A70059A120A4A70059A61
:10115800120C8A700431059A120E5046C270009A19
:10116800002A18D06AB2002A08DB8A4614E0030075
:101178000094E3E70300E1E70300DFE79D4A926894
:101188000271110A4171110C8171120EC27108228B
:101198009446E24400E08A46EA0661D57378B2785C
:1011A80012021343F27812041343327912061343DE
:1011B800994605368F4B5F8AEB0719D58D4B1C8AEC
:1011C80000E0140000212800FFF7F8FC022806D1EF
:1011D800621E002C03D0864B1B78002BF1D0030035
:1011E800012803D14B46B1461E0024E042462EE1B9
:1011F8004B46B1461E001EE0140005A92800FFF763
:10120800DDFC0300022806D1621E002C03D07849B9
:1012180009780029F0D0012B10D1764A5269059936
:101228000A40B2420AD0791E002F07D0704A1278BD
:10123800002A03D10F006F4B1C8ADEE732004E46AE
:1012480091466C4A526905990A404A4502D01023D2
:101258000343DBB2012B00D011E10022019282E0AE
:10126800644A148AEA0734D5009A002A04D03E005A
:101278000022019277E0140000212800FFF79EFC6D
:10128800022806D1621E002C03D0594B1B78002B74
:10129800F1D00300012800D0E8E06DB2002D04DB96
:1012A800009A019200903E005DE0524A92685146D1
:1012B8000A70110A50464170110C8170120EC270EA
:1012C800009A0192009304229446E2443E004AE0C8
:1012D800140005A92800FFF771FC022806D1621E38
:1012E800002C03D0424B1B78002BF1D003000128BF
:1012F80000D0BEE06DB2002D12DB059A51460A708F
:10130800059A120A4A70059A120C8A70059A120EEA
:10131800CA7004229446E2443E000022019222E070
:10132800344A926851460A70110A50464170110CAD
:101338008170120EC27004229446E244DDE7009BDD
:10134800002B2ED17378B27812021343F27812046C
:10135800134332791206134305930536AA064BD573
:10136800244A5361012301229446E344204A127817
:10137800002A00D087E0013A9446E0444246002A19
:1013880065D0771C3578AA07D9D5009A002A00D1EC
:1013980002E7184B1C8A11232B40012B00D0B9E619
:1013A800A8E6144B1C8A00E0140005A90E20FFF7DC
:1013B80005FC022806D1621E002C03D00C4B1B78BA
:1013C800002BF1D00300012856D1059B524613701B
:1013D800059B1B0A5370059B1B0C9370059B1B0EEA
:1013E800D37004239C46E24400230093AAE7C04636
:1013F800282D0220F4DB00204C4B1C8A00E014004E
:1014080005A92800FFF7DAFB022806D1621E002C86
:1014180003D0474B1B78002BF1D00300012830D1B3
:101428006DB2002D01DB01909DE7404A926851465C
:101438000A70110A50464170110C8170120EC27068
:10144800019304229446E2448DE70536013A002AC6
:101458001BD0701C31788C07F7D5C90601D5053625
:10146800F4E70600F2E73E004246F0E73E00424657
:10147800EDE73E004246EAE73E004246E7E74246DD
:10148800E5E74246E3E74246E1E7012B10D0039A3D
:10149800594611705370029BF01A00045346991A6A
:1014A800084307B0F0BCBB46B246A946A046F0BD0B
:1014B800009A002A23D01D4B1C8A00E0140005A9BD
:1014C8000E20FFF77BFB022806D1621E002C03D0FA
:1014D800174B1B78002BF1D003000128D7D1059AB0
:1014E80051460A70059A120A4A70059A120C8A70B7
:1014F800059A120ECA7004229446E244C7E7019A7C
:10150800002AC4D0094B1C8A00E00C0000210E20E0
:10151800FFF754FB03000228B9D1611E002CB6D096
:10152800034A1278002AF0D0B1E7C046F4DB002065
:10153800282D022010B5054B1B78012B02D0FFF790
:1015480021FD10BDFFF7BEFDFBE7C046F4DB002020
:10155800F0B5D6464F464646C0B582B08846CF1C41
:10156800524B00221A70447883781B021C4300D126
:1015780088E0061DC3781D009A076DD5DB0740D5A6
:101588004B4B1E8A00E0160000212800FFF716FBCF
:10159800022806D1721E002E03D0444B1B78002B64
:1015A800F1D001282ED000246DE0EB0726D50E25BA
:1015B80024E0160001A92800FFF700FB022806D145
:1015C800721E002E03D0394B1B78002BF1D0012856
:1015D80059D1019B3B70019B1B0A7B70019B1B0C23
:1015E800BB70019B1B0EFB7001344B4604375A1E1F
:1015F8009146002B47D04B46002BD6D02C4B1E8A49
:10160800D8E7002023000024F1E71C0001A92800E6
:10161800FFF7D4FA022806D1631E002C03D0234A10
:101628001278002AF1D0012839D101239C46E144DF
:101638005446631E9A46002C11D0337872781202F1
:101648001343B27812041343F2781206134301933A
:101658000436174B1C8AD9E700239946E9E7144B4F
:101668001C8A00E0140000210E20FFF7A7FA0228C8
:1016780017D1621E002C16D00C4B1B78002BF1D012
:101688004C4600E0200043461C70240A5C709870A9
:10169800F81A02B0E0BCBA46B146A846F0BD4C46BE
:1016A800F1E74C46EFE74C46EDE7C046282D02200F
:1016B800F4DB002010B504000D4B1B78012B0BD078
:1016C80000230B704B708B700320E3789B0706D5C3
:1016D8008023DB02184310BDFFF73AFFF5E7637874
:1016E800A2781202134301339B041843F3E7C04660
:1016F800F4DB002010B582B00C0043788278120227
:101708001343C27812041343027912061343019358
:1017180001A90020FFF752FA00232370012002B02C
:1017280010BD000010B5074B1B78012B06D0FF2316
:101738000B70FE3BA020C002184310BDFFF7DAFF74
:101748000300F7E7F4DB002070B502000C00037813
:1017580019008039C9B21F2908D9611C23700130CA
:101768001D2B48D89B00264DEB589F46210000F0C2
:1017780075F80DE0A11C5078FFF7DEFA6070214B78
:101788009C46604404E0FFF719FB1F4B9C466044ED
:1017980070BDFFF711FCF8E70800FFF729FCF4E734
:1017A800FFF7FCFAF1E70800FFF714FBEDE7FFF796
:1017B80017FBEAE7FFF762FBE7E7FFF725FCE4E73B
:1017C800FFF78CFBE1E7FFF733FCDEE7FFF798FB59
:1017D800DBE7FFF7B2FBD8E7FFF7B8FBD5E7FFF782
:1017E800BBFBD2E7FFF7A6FECFE7FFF763FFCCE727
:1017F800FFF798FFC9E7FF2323700348C8E7C046EF
:101808000CB70020020002000100010010B5124BC5
:1018180000221A705A703D2159601A7327311982B3
:101828005A825A6101321A7600225A7600226339A6
:10183800002001F0EBFC002001F026FD062102202B
:1018480001F0C2FC0621032001F0BEFC00220121A8
:10185800032001F0DBFC10BDF4DB002003780B70E3
:101868000048704701000100024B9C466144890012
:10187800016070474000003410B5040000F02EFFEE
:1018880001002000FFF7F0FF01235B426360BFF314
:101898005F8F10BD10B5040000F020FF010020008C
:1018A800FFF7E2FF01235B42636000232372BFF36B
:1018B8005F8F10BD034B9C46614489000160BFF3F4
:1018C8005F8F70474000003410B50400012000F01D
:1018D80013FF01002000FFF7EDFF10BD70B50500F4
:1018E8000C00080000F042FE0949200000F082FDCB
:1018F80000F0F4FE074B9C466044800068602C753D
:10190800D0231B061B786B75A400034BE55070BDF4
:10191800E9190020400000348826012010B5084B42
:101928001A68EFF3108172B61368002BFCD0BFF36E
:101938005F8F034807F084F90020002110BDC046DE
:101948008C2B012010B5002922D003681B7B9942FB
:101958001ED8174B9C466144090183689C46614424
:101968000C684968002A19D003681B7B9A4215D86D
:1019780083680F488446624412019A1810685368B5
:10198800020001208B4201D80ED00020C0B210BD49
:10199800084B094A3C21094801F0D4FE054B064A88
:1019A8003C21064801F0CEFEA242EFD8EDE7C04642
:1019B800FFFFFF0F28B900204CBB0020E0B8002033
:1019C80010B500291ED0037B99421BD84B005B1829
:1019D800033B0468A4466344002919D0002A1DD09B
:1019E800914221D0002A25D0047BA24222D8046843
:1019F80050008018033820188170197800291FD1E9
:101A08001A7010BD104B114A6821114801F09AFE56
:101A1800104B114A6F310E4801F094FE0F4B0E4ADD
:101A280070210B4801F08EFE0D4B0B4A71210848BE
:101A380001F088FE044B054A6821054801F082FE42
:101A480041701A70DDE7C0464CB90020B8BB0020D1
:101A580068B90020C4B9002094BB0020D0B9002088
:101A6800DCB9002070B506000D001400002914D060
:101A7800002A14D0806873689847002806D022008E
:101A880029003000FFF79CFF280007E02A0021000A
:101A98003000FFF795FF200000E0100070BD08003F
:101AA800FCE70000F0B583B00500009201930AAB93
:101AB8001C780BAB1F78002C26D003685A7B944205
:101AC80007D10123002B19D1002C3BD1200003B0F2
:101AD800F0BD002C0CD01A7B944209D81A68630018
:101AE8001B19033BD3189B78002BEBD00123E9E7A4
:101AF8003E4B3F4A68213F4801F024FE3E4B3F4A97
:101B080067213F4801F01EFE03689C7B002CDBD058
:101B180012D01A7B94420FD862001219033A19683E
:101B28008C46624451789973002900D1D9730023F7
:101B3800937053701370C7E72C4B2D4A68212D48BA
:101B480001F000FE002C3AD02B681B7B9C4236D853
:101B58002C4BE3181B01AA6894466344009A1A6048
:101B6800019A5A60089A9A60099ADA602E68002CDD
:101B78002BD030D0337B9C422DD863001B19033BFC
:101B880032689446634400229A705A701A70717BC6
:101B980022003000FFF766FF7073844200D095E79B
:101BA800287D009A019B00F06DFC061E01D0002FD5
:101BB80017D00C9B002B00D188E71E7086E7124BCC
:101BC800124A3C210E4801F0BDFD114B114AA521D6
:101BD800084801F0B7FD054B054A6821054801F0A2
:101BE800B1FD2868210001F073FAE2E74CB9002042
:101BF800B8BB002068B90020F4B90020C4BB00209D
:101C0800E0B80020FFFFFF0F28B900204CBB0020E0
:101C1800DCB80020A8BB0020F0B5DE4657464E468B
:101C28004546E0B58BB00990002308938200B54B78
:101C3800D658370052E0B44BB44A3F21B44801F0BB
:101C480081FDB44BB44A3C21B44801F07BFD002926
:101C580001D1002869D10021404601F02FFAA042A5
:101C680019D12A686B6806920793AB689846EB68A7
:101C78009A464346002B14D0002C18D03B681B7B97
:101C88009C4214D8631EFA68D35C08931B0218435D
:101C98003861002015E0A24BA24A8E219F4801F02E
:101CA80051FDA14B9F4A92219C4801F04BFD994B55
:101CB8009E4A4121994801F045FD00239A469846DD
:101CC80000207B68BFF35F8F00221A6086F31088BC
:101CD8004346002B32D1002800D10CE100F046FB2E
:101CE80002000B1EA7DB00200021069007917868F0
:101CF800EFF3108672B601680029FCD0BFF35F8F3E
:101D0800396888464C7B002CD7D09AD0097B8C4206
:101D180097D8874965182D01B9688C4665442868A5
:101D28006968801A9941002991DD2A686B680998C9
:101D380000F0A8FB00239A469846C2E7089B1B02BE
:101D48002343994651461800C04705000E007A689B
:101D5800EFF3108B72B6136859424B41D9B2002B7E
:101D6800F9D1BFF35F8F002E1EDB002E46DD3B69E5
:101D7800002B47D04B456DD100F0F8FA02000B1E3E
:101D88006EDB52197341002B70DB002B72DB0021D4
:101D98000491013103910294514601914146009109
:101DA8003800FFF77FFE4CE03B69002BDDD04B4548
:101DB80014D1069A079B521BB341002B14DB002B4E
:101DC80016DB0021049101310391029451460191DF
:101DD800414600913800FFF765FE32E0554B514A05
:101DE800A1214E4801F0AEFC01225242524BE6E7D7
:101DF800454B464A3F21464801F0A4FC002E01D13C
:101E0800002DB4D13B68002C50D05A7B944237D176
:101E1800012100294AD1DA7B002A4DD19A7B002A78
:101E280003D1DA7B002A5AD19C73DC73002C5CD076
:101E38003B681B7B9C4258D8FA68013C135D013310
:101E4800135500233B617A68BFF35F8F13608BF3F0
:101E5800108843E7374B334AA421304801F072FC1D
:101E6800294B2A4A3F212A4801F06CFC01225242A0
:101E7800314B8AE7244B254A3F21254801F062FC73
:101E8800002C0DD01A7B94420AD862001219033A2A
:101E98001868844662449278002ABAD00121B8E7CB
:101EA800264B274A6821274801F04CFC264B274A35
:101EB800F621244801F046FC002A0AD0197B8A4200
:101EC80007D851008A18033A19688C46624454703E
:101ED800A4E71A4B1A4A68211A4801F033FC1C4B34
:101EE8001A4AFB21174801F02DFC0A4B0F4A4121E1
:101EF8000A4801F027FC0BB0F0BCBB46B246A94625
:101F0800A046F0BD88260120E8B7002018BB0020B5
:101F180004B8002028B900204CBB0020E0B80020FD
:101F28001CBA002030BB002034BA002070BB00204F
:101F3800FFFFFF0F40BA0020FFFFFF7F4CB90020D2
:101F4800B8BB002068B900207CBA002084BB002000
:101F5800A0BA002010B50C4B5B68002B04D00A21F6
:101F68000A48FFF781FC10BD074C2300084A1021DE
:101F7800206800F0B3FF032000F0ECF903212000F3
:101F8800FFF7ACFCEBE7C046ECD900208C2B012016
:101F98001517002010B5064B5B68002B01D00448CC
:101FA80010BD044B044A5E21044801F0CBFBC04637
:101FB800ECD90020B4BA002058BB0020E0B80020BB
:101FC800F0B5DE4657464E464546E0B58BB08046EE
:101FD80016001F00149B9A46159B994616AB1B7852
:101FE8009B461F2302AA9446634400221A702BE0E2
:101FF800002809D042461268127B904204D8421E3B
:102008004146C9688A5C41E0404B414A4121414808
:1020180001F098FB07984CE0361BAF41002F07DB17
:10202800002F11DA3C4B3D4A3F213D4801F08AFB25
:10203800012676423B4FF3E7374B384A3F21384871
:1020480001F080FB002F4FDB43465A68EFF3108402
:1020580072B6136859424B41D9B20791002BF8D197
:10206800BFF35F8F1F3302AA94466344049300238F
:10207800039302934B4601935346009332003B006F
:102088004046FFF70FFD031EB2D1020041464968E2
:10209800BFF35F8F00250D6084F31088002B29D0D3
:1020A8001F2302A98C4663441B78002BB2D112026D
:1020B8001043002B20D05B46002B1DD04946D0474B
:1020C80004000D0003000B431DD00029A4DB00F021
:1020D8004DF906000F1EAFDB36196F41002FB1DA3C
:1020E800012676420F4FADE70B4B0C4A3F210C48B7
:1020F80001F028FB012040420BB0F0BCBB46B246C1
:10210800A946A046F0BD0798F6E7C04628B90020C2
:1021180070BB0020E0B80020E8B7002018BB002002
:1021280004B80020FFFFFF7FF8B504004268EFF312
:10213800108572B6136858424341D8B2002BF9D1C2
:10214800BFF35F8FCBB22268567BB3421BD101200D
:10215800002848D0206988422BD0090AC9B2002B30
:102168002ED02068007B83422AD8581EE668305C4F
:1021780088422BD000206368BFF35F8F00221A606B
:1021880085F31088F8BD002B0DD0167BB3420AD812
:102198005E00F618033E1768BC466644B678002E03
:1021A800D6D00120D4E7134B134A6821134801F015
:1021B800C9FA9521124B134A4900134801F0C2FA93
:1021C800124B134A4121104801F0BCFA19001000C3
:1021D80000F07EFF0028CED132210E4B094AFF3194
:1021E800094801F0AFFA23698B42C4D10023236167
:1021F800C1E7C0464CB90020B8BB002068B9002030
:10220800D8BA002000BB0020E0B8002028B9002080
:1022180070BB0020FCBA002070B584B005000C002B
:10222800EFF30583002B1ED1FFF7B4FE00230293C2
:102238000193224B00932A002300FFF7C1FE061EDC
:1022480023DD20BFFFF7A6FE3100FFF76DFF1C4B13
:102258005B6A9C422DD81A4A926AAA422CD29C42A6
:1022680025D0012026E0164B5B6A994209D8144A0A
:10227800926A824207D2994201D001201AE00020D6
:1022880018E0002016E0012014E00D4B5B6A9C4228
:1022980009D80B4A926AAA4207D29C4201D001206F
:1022A80008E0002006E0002004E0012002E0002011
:1022B80000E0002004B070BD0120FBE7ED1600200F
:1022C8000040054070B5EFF305801038EFF3108C2F
:1022D80072B61A4B1B68002BFBD0BFF35F8F01222D
:1022E8001300834016494B6316490B601649097859
:1022F8000C00C440224214D0114A546A8200134D83
:102308005259944206D38200114C125999430E4BEC
:10231800197007E00A4A031D9B009958995000223A
:1023280000E00022BFF35F8F044B002119608CF39B
:102338001088002A00D0904770BDC046280100D000
:10234800004005403C7005402E2D0220902B0120B6
:10235800E420012010B50100024A034800F06CF99E
:1023680010BDC046DCBB00202C2D0220044B5B6A4C
:10237800034A906A1900536A9942F9D17047C046D6
:1023880000400540084B5B6A01E0074B5B6A8B42E3
:10239800FBD301E0044B5B6A8B4203D1024B9B6A7F
:1023A8008342F7D37047C0460040054070B504002B
:1023B8000D00FFF7DBFF02000B002000290080184A
:1023C80059418B4202D804D1824202D901204042AD
:1023D800C117002902DBFFF7D5FF70BD024B034A86
:1023E8003F21034801F0AEF9E8B7002090BC002077
:1023F80004B8002070B504000D00EFF3108672B623
:102408001B4B1B68002BFBD0BFF35F8F002D1CD02C
:10241800200000F0FDF9174B83420BD01900200073
:1024280000F0FEF90121200000F0EAF90123A340A1
:10243800114A1360A400114BE550BFF35F8F0C4B9A
:1024480000221A6086F3108870BDA2000B4B002191
:10245800D1500122A2400A490B7893430B700549D9
:10246800200000F021FB0021200000F0C9F9E4E77A
:10247800280100D09520002038600540E420012084
:102488002E2D0220F0B5DE4600B584B004001500FC
:1024980001921E000293FFF769FF03958E4202D84E
:1024A8004ED185424CD9EFF3108B72B6274B1B687F
:1024B800002BFBD0BFF35F8F254A17780125A54075
:1024C800EBB23B431370234B5D63221D92000199CD
:1024D800D150A2002049029850501B6A2B4212D1B9
:1024E8001C4B1B6C2B4208D00020BFF35F8F174B8F
:1024F80000221A608BF3108823E0184B184AC52174
:10250800184801F01FF9FFF731FF8E4214D802D1A5
:10251800039B834210D80E4B1B78BB420ED00D4B49
:102528001D625D631F2004400123A3400E4A13600F
:10253800074B1F701E38D8E70020D6E70120D4E7E4
:10254800012004B080BCBB46F0BDC046280100D0C5
:102558002E2D022000400540902B012000BC0020B9
:1025680074BC002024BC002080E200E0EFF3108C53
:1025780072B60B4B1B68002BFBD0BFF35F8F012398
:102588008340084A136208490A789A430A70BFF3DD
:102598005F8F034B00221A608CF310887047C04687
:1025A800280100D0004005402E2D0220034B1B6857
:1025B80002201840431E9841C0B2704700C0064030
:1025C80010B58023DB0518680205120D030B1B04E8
:1025D8001B0C09498A4203D1022B07D1000F10BDF9
:1025E800064B074A2221074801F0ACF8064B044A7B
:1025F8002321044801F0A6F827090000A8BC002000
:1026080034BD0020CCBC002020BD0020EFF310809A
:1026180072B6034B1B68002BFBD0BFF35F8F70476C
:102628002C0100D0BFF35F8F024B00221A6080F3A9
:10263800108870472C0100D0F8B506000C00150072
:10264800FFF7E4FFE308F718F15C072222400123B3
:1026580093400B4205D1DBB20B433B70FFF7E2FF1F
:10266800F8BD2100280001F007F9F0B583B0060095
:10267800019114001F00FFF7C9FF00E00134BC42BC
:102688000CD8E308F518F35C0721214001228A40A1
:102698001A42F3D1D2B21A432A7001E001246442EB
:1026A800FFF7C0FF002C02DB200003B0F0BD019B48
:1026B800002BF9D0089801F0DFF80000002307E0AC
:1026C800054A9A189200BFF35F8F00211160013309
:1026D8001F2BF5D97047C04640000034054A1078D2
:1026E800431CDBB21370172B02D9130010221A7087
:1026F8007047C04614DA002000B583B00100044BCF
:1027080000931F2318220348FFF7AFFF03B000BD53
:1027180048BD0020F8210120074B9B68103080003D
:102728001950BFF35F8FBFF35F8F044B002119600F
:1027380082F310887047C04600ED00E0240100D005
:1027480010B5091A081F0A4B9C466144094A914270
:1027580008D8C30706D440104005400D064B18435F
:1027680080B210BD054B064AA321064800F0EAFFD7
:10277800FC070000FE0F000000E0FFFF64BD002022
:10278800C4BF002094BD002010B5091A04394C08B4
:10279800090B08D14905490D064A11430180064B2A
:1027A8002343438010BD054B054AAB21054800F083
:1027B800C9FFC04600F0FFFF00F8FFFFE0BD0020A2
:1027C80098BF002094BD002001238340034A10686D
:1027D8001840431E9841C0B27047C04600E100E06F
:1027E800002904D0034B1860034B18607047034B53
:1027F8001860FBE780E200E000E100E080E100E033
:1028080010B5012383401800FFF7EAFF10BD000050
:10281800024B9B6810308000C058704700ED00E004
:1028280070B504000D00EFF3108672B60C4B1B68F0
:10283800002BFBD0BFF35F8F2000FFF7E9FF094BA8
:10284800984201D0A84205D1320029002000FFF7A4
:1028580063FF70BD044B054A8621054800F072FFEE
:10286800240100D0CD010010F0BD0020F8BF0020E9
:1028780094BD0020F0B5DE4657464E464546E0B5C5
:1028880089B0814601911500EFF3108A72B6744B36
:102898001B68002BFBD0BFF35F8F724B0027DF57FD
:1028A800002F40DB7C00E419A4006F48241806229E
:1028B800A2566C4B1A706D4B9A684B4610339B00AE
:1028C800D35898461E001B1A2F2B38D9684B9845A9
:1028D8002FD105AE674B33807B009B46D81980000B
:1028E800614B9846404402306349FFF729FF7080E6
:1028F800624BB380FF23B371F571019B07935F446B
:10290800BF0047440ECE0EC701231C43A0465246C3
:1029180041464846FFF700FF09B0F0BCBB46B24647
:10292800A946A046F0BD564B564AD721564800F056
:1029380009FF564B534ADE21534800F003FFC043BA
:1029480040440C2102F0B8F8002912D101239E431B
:10295800B34633000026DA79AA4211D9062159561E
:1029680000290CDB4A00521892001E003E4B9B18AF
:10297800F1E7474B434AEA21434800F0E3FE1E00D3
:10298800002E3AD005AB434A1A80813A5A80062372
:10299800F3560293002B17DA3F4805AB9B46988005
:1029A800029A9A71DD71019A0792301D2100FFF792
:1029B800C7FEB080B7717B00DB199B002A4FFF1858
:1029C8005B4607CB07C7A2E77800C0198000264BF3
:1029D800C0180430321DB388D90A1C2907D15B05F9
:1029E8005915023149005118FFF7AAFED5E72B4BBC
:1029F8002B4AB121244800F0A5FE05AE1D4B3380BB
:102A08007B000293D8198000174A9046020042447E
:102A18000392901C1849FFF793FE7080039A101DCB
:102A28005946FFF78DFEB0801E4B5A464146521A52
:102A3800524153431B0DB371F571019A0792029BE2
:102A48009C466744BF0047440ECE0EC7114B5A46FA
:102A58001380813B538001231C43A04657E7C0469F
:102A6800240100D02D2D022018DA002000ED00E00E
:102A7800CD01001000A1FFFF48DA002001BDFFFFD3
:102A880028BE0020E0BF002094BD002050BE0020DA
:102A980078BE00200148000001BD0000ECBE002007
:102AA800D0BF0020AAAA0000F0B5CE46474680B5A0
:102AB80083B006000D00EFF3108872B6564B1B6802
:102AC800002BFBD0BFF35F8F544B9A68340010344F
:102AD800A300D758524B9F4207D0AF4200D198E08D
:102AE8000197504BFB1A2F2B09D942463900300069
:102AF800FFF712FE03B0C0BCB946B046F0BD3000C7
:102B0800FFF762FE814600213000FFF779FEBFF330
:102B18005F8FEFF30581002901D08C4211D1012389
:102B2800019C9C430022A368AB4212D00622A25605
:102B3800002A0DDB53009B189B002200394CE41837
:102B4800F1E73621384B394AFF31394800F0FAFDB0
:102B58002200AB4256D106256557002D38DB6B00A5
:102B68005B199A002F4B9B189A68A260DA79E27178
:102B780006229A56A2719B795BB2002B0FDA2D4878
:102B8800A0806B005B199B00264AD3182A4A11784B
:102B98009971157049463000FFF732FEA5E7201DF0
:102BA8006B005B199B001F4A9B181A1D9B88D90A4A
:102BB8001C2907D15B055B15023359005118FFF733
:102BC800BFFDDDE71D4B1E4AB121194800F0BAFDD3
:102BD800002912D1002A0ED0FF239371194B93803C
:102BE800154A1378A371184B0E49641A644163435C
:102BF8001B0D1370CEE70A4FF2E7201D1349FFF7AC
:102C0800C3FDC7E76A21124B084AFF31084800F0A4
:102C180099FD034F69E7C046240100D000ED00E0AC
:102C2800CD01001018DA002004BF0020B0BF00203A
:102C380094BD002001BD00002D2D0220ECBE002017
:102C4800D0BF002001BDFFFFAAAA000052DA002071
:102C580038BF002010B5032304009C43064A94465D
:102C6800644422681840C000FC3383409A43130030
:102C780081400B43236010BD00E400E070B50121E2
:102C880001432E4BCB1A2F2B28D8EFF30583002BAB
:102C98002BD0EFF3108C72B6294A1268002AFBD0A9
:102CA800BFF35F8F274A0400244D641B64416243CD
:102CB800120D54B2244A92689B00D2588A421BD003
:102CC8000022032A32D853009B189B001B49CB18BB
:102CD8009B795BB2A3421FD00132F2E7C7211B4B9D
:102CE8001B4A49001B4800F02DFD92211A4B184A37
:102CF800FF31184800F026FD134A92681749D15051
:102D0800174B1A7882711C70BFF35F8F0C4B00222F
:102D18001A608CF3108870BD0D0053009918890053
:102D28006918FF268E710F4A8A80E9E7D1210E4B78
:102D3800074A4900074800F005FDC04618DA002098
:102D4800240100D0AAAA000000ED00E040BF002046
:102D58007CBF002094BD002068BF0020CD0100107A
:102D68002D2D022001BDFFFF74BF00200022044B5F
:102D780002E0044902C30132072AFAD97047C04663
:102D880000E400E08080808010B500291ED0037B1D
:102D980099421BD84B005B18033B0468A446634464
:102DA800002919D0002A1DD0914221D0002A25D00F
:102DB800047BA24222D804685000801803382018E7
:102DC8008170197800291FD11A7010BD104B114A53
:102DD8006821114800F0B6FC104B114A6F310E48BB
:102DE80000F0B0FC0F4B0E4A70210B4800F0AAFC13
:102DF8000D4B0B4A7121084800F0A4FC044B054A0E
:102E08006821054800F09EFC41701A70DDE7C04655
:102E18004CB9002010C1002068B90020C4B90020B6
:102E2800FCC00020D0B90020DCB9002070B5060035
:102E38000D001400002914D0002A14D0806873688B
:102E48009847002806D0220029003000FFF79CFF91
:102E5800280007E02A0021003000FFF795FF200036
:102E680000E0100070BD0800FCE7000010B500236A
:102E7800437301338373037BC3730123027B9A4239
:102E880014D9002B0CD0027B934209D85A00D218CF
:102E9800033A01688C4662440133DBB25370EDE7B4
:102EA8000B4B0C4A68210C4800F04CFC002A09D056
:102EB800924207D8016853009A18033A8A180023E7
:102EC800537010BD024B034A6821034800F03AFCD6
:102ED8004CB9002010C1002068B9002010B501735A
:102EE80042608360FFF7C2FF10BD000070B50400A8
:102EF800081E00D170BD002934D0237B994231D8F7
:102F08004B005B18033B2268944663445A78002AB6
:102F1800F0D02DD0237B9A422AD853009B18033B2C
:102F280021688C4663445D7800215970002825D0BB
:102F3800237B984222D843001B18033B21688C4608
:102F480063440021597001002000FFF76FFF06005D
:102F580029002000FFF7CAFF020031002000FFF718
:102F680065FFC7E7084B094A6821094800F0EAFBF2
:102F7800054B064A6821064800F0E4FB024B034A69
:102F88006821034800F0DEFB4CB9002010C1002086
:102F980068B9002070B505000C00160000292FD074
:102FA80034D0037B994231D84B005B18033B02684D
:102FB800944663445A78002A2ED19A78002A31D14F
:102FC8001978FFF793FF0300002E0AD0EA7B002A46
:102FD8002ED1AA7B002A03D1EA7B002A3BD1AC730D
:102FE800EC73002B3DD1002C4FD02B7B9C424CD84E
:102FF8002B6861000C19033C1C190023637070BD19
:10300800254B264A3821264800F09CFB254B264AAA
:103018006821264800F096FB254B204A3A21204893
:1030280000F090FB234B1D4A3B211D4800F08AFB12
:10303800002A0AD0297B8A4207D851008A18033A05
:1030480029688C4662445470C3E7164B164A6821B7
:10305800164800F077FB184B104A4221104800F040
:1030680071FB002B0BD02A7B934208D843001B1816
:10307800033B2A689446634400229A70B3E7094BDD
:10308800094A6821094800F05DFB064B064A682199
:10309800064800F057FBC04614C00020E8C00020D6
:1030A8001CC000204CB9002010C1002068B90020C5
:1030B80064C000208CC00020A0BA002070B50400B5
:1030C8000A00457B2900FFF765FF6073280070BD83
:1030D80070B50400002967D0437B8B420ED00029CD
:1030E80011D0037B99420ED84B005B18033B026852
:1030F800D0188378002B0CD1002056E00121FFF76F
:10310800DDFF012051E0294B294A6821294800F0B8
:1031180019FB002B20D0227B93421DD85A00D318CC
:10312800033B2268D2182568EB5C8B421AD0002B2F
:103138001BD0227B934218D85A00D318033B22682D
:10314800D21853788B4216D0002BF0D11A4B1B4A59
:103158006B211B4800F0F6FA144B154A68211548F4
:1031680000F0F0FA4378137007E0104B104A68211A
:10317800104800F0E7FA43785370002383704370D7
:1031880001222000FFF706FF0200617B814205D083
:103198002000FFF74BFE6073012006E0094B074A49
:1031A8007121074800F0CEFA002070BD4CB900200C
:1031B80010C1002068B9002074BF0020D0C00020D2
:1031C8001CC00020B0C0002010B58300084A9446F7
:1031D80063441C6840226240C0241440802252018B
:1031E80013431C60C000034B9C466044416010BD03
:1031F80004C0014000400140C000034B9C466044AD
:1032080043681F20184070470040014080000B4B66
:103218009C46604400290DD00823002A0CD00422C3
:103228001343026853400C2213408022520110437A
:10323800036070470023F0E70022F1E704C0014073
:10324800C000074B9C466044090403685940C023EA
:103258009B02194080235B01184301607047C046F8
:1032680004400140C000074B9C46604409030368C2
:103278005940C0239B01194080235B01184301601A
:103288007047C0460440014010B501238340D02256
:103298001206936293610521FFF796FF10BD0000A7
:1032A800054B984204D08022D203044B1A60704721
:1032B80080221204F9E7C0460080034000E0004085
:1032C80070B504000D00062000F07EF9C00029004A
:1032D80001F0F2FBC60908D00E4B9E4217D87F2397
:1032E800184001303500460800E001256562A662F5
:1032F8002C3480208001044300232360062000F042
:1033080063F98000A901891901F0D6FB70BD002678
:10331800014DEBE7FEFF0000FFFF0000002909D088
:103328000A22064B9C466044434258414000044BE5
:10333800C252704780225200F3E7C0460080FCBFAB
:10334800EC2B012070B505000C00062000F03CF9BC
:10335800002829D0164B9D4227D08022D203154B36
:103368001A60154B1A60154B9B6811009943FAD1E6
:1033780000212800FFF7D2FF21002800FFF7A0FF57
:103388002C002C34E96A60224A406E2111408022C8
:103398005201224311600A4B2B6380239B01234374
:1033A80010221A600323AB6470BD80221204D6E792
:1033B8000080034000E0004000F0004000C00040F2
:1033C80001030000F8B5DE4657464E464546E0B5CF
:1033D80005000F0092460A9A93424ED31A0E914660
:1033E8001E020A9A00233000494601F0A3FB8046DA
:1033F8006C006419A4002F4B9C46644463688342A4
:1034080000D260602B1FDBB29B46012B3BD9C02347
:103418009B012343802212011A60AB00264A995867
:10342800002905D0506901F047FB01300138FDD172
:1034380053465A0123685A40E0231A4080235B010F
:1034480023431A605A46012A28D980239B01234323
:10345800802212011A60434663604246002330000E
:10346800494601F067FBAD00134B58510120F0BCF1
:10347800BB46B246A946A046F8BD104B104A2D21BE
:10348800104800F05FF9012FC1D1C0239B012343ED
:1034980003221A60A368DB07FCD5C9E721687940D5
:1034A80003220A401A60A2680123BB401342FAD0E3
:1034B800CBE7C04600800040FC2101201CC1002051
:1034C80084C1002030C1002030B583B00C2000F04A
:1034D80017F9FFF76BF800280DD0002304E09900D6
:1034E8002D4A2E4888500133092BF8D92A4B2C4AEB
:1034F8005A6203B030BD2B4B00229A6700F008F9DE
:10350800294B01221A60274B5B6C012BFBD1274BFF
:1035180003221A60234B9B6B012BFBD101330093D1
:103528000433234A0121234800F054F8052300936B
:10353800214A0121214800F04DF8214B0093002237
:1035480002210420FFF73EFF1E4D00952B000022AC
:1035580001210520FFF736FF104C009423000022BC
:1035680000210720FFF72EFF0094230000220021EE
:103578000820FFF727FF0A4B0093230000220021B1
:103588000920FFF71FFF00952B00002200210620CD
:10359800FFF718FFADE7C046FC210120006CDC02F4
:1035A8001BB70000008000403CB0004030B0004035
:1035B800002F685900800240008C864700C00240F6
:1035C800001BB700405973078000014BC058704773
:1035D800FC210120F0B5C64600B504000D00170017
:1035E80098460C2001F068FA0600394BFA18394B56
:1035F8009A4241D843011B1A9901C91AC9000918EE
:103608008901380001F058FA0200103A98235B004B
:103618009A4237D84346013B062B39D8069B013BD3
:10362800062B35D83F09B74238D343461E04069BBC
:103638001A0316432368002B36DB274B9C4244D0E1
:1036480080225201254B1A60254B1A60254B9B6836
:1036580011009943FAD12560A060231DC022920170
:103668001A43212313602368002BFCDAE660082341
:10367800136080BCB846F0BD1B4B1C4A11211C4886
:1036880000F060F81B4B194A1921194800F05AF844
:10369800194B164A1C21164800F054F8174B134AC8
:1036A8002321134800F04EF822683F231340AB4211
:1036B800C3D1A3681B051B0D8342BED1E368EE226C
:1036C800D2021340B342B8D1D3E780229201B9E7BE
:1036D80080E84BD380F8A93200C0024000E00040E7
:1036E80000F0004000C0004094C10020C4C2002087
:1036F800F4C1002040C200205CC20020A8C2002003
:1037080080239B000343014AD36270470080054031
:10371800064BAA2212011A602F22DA60044B054ACE
:103728001A60024B5B68002BFBDA704700400240CE
:103738000060024000B0FA0000BEFDE710B5FFF7D8
:10374800FBFF000010B582B00C001900002A0CD055
:10375800084B002A0BD00192009323000200064870
:1037680002F0E8F90120FFF7E7FF044BF1E7034A0D
:10377800F1E7C046D0C20020E0C20020DCC2002031
:1037880070B52B4B2B4A1A602B4B2C4A1A602C4BCA
:103798009A682A4B9343FAD12A4C01E008CC9847FF
:1037A800294B9C42FAD3FFF78FFE234B274A1A6016
:1037B800234B9B68DB43DB01FAD1254B40229A67F8
:1037C8005A671A67DA66234C09E0234B234A862195
:1037D8002348FFF7B7FF2000FEF74EF80834214BC7
:1037E8009C4209D22368002BF5D0012BEDD1200093
:1037F800FEF750F80C34F2E71B4CA1681B4DC022B1
:10380800280002F055F8A560EFF30583002B00D0DF
:1038180000BEFEF753FFFFF7A9FAFEF79BFB144C17
:1038280001E008CC9847134B9C42FAD370BDC046C0
:1038380000E00040BFCDFBFE00F00040FE7F3C00F2
:1038480000C00040BCDA0020CCDA0020FFFFFF01F6
:1038580000F00140ACDA002010C30020A0C3002013
:1038680030C30020BCDA002000ED00E0000000209A
:10387800CCDA0020D8DA00200FB400B583B00848AD
:1038880002F028F9049B002B07D005A90191180024
:1038980002F030F9034802F01DF90120FFF74CFF50
:1038A80080C30020E8B4002010B50148FFF7E4FF0A
:1038B80090C30020704710B5002802D00B684968F3
:1038C800984710BD0100002007E083001B185B002B
:1038D800501C08601078C01830380A681378303BDC
:1038E800DBB2092BF1D97047F0B5DE4657464E4694
:1038F8004546E0B583B093461F000C9B9A460D9C45
:103908000E9B99460F9B9B0703D0B8460F000600F5
:1039180022E00192A34688464E46B9460700B442C3
:1039280007D2551C4B4641462020B84701342A008F
:10393800F5E73D004F465C46019B9B46B14646462F
:10394800B84637002E0007E0013C551C5346185D69
:1039580043463900B0472A00002CF5D135003E0017
:1039680047460F9B9B0707D4100003B0F0BCBB462B
:10397800B246A946A046F0BDB0464E46B9462F000D
:103988005D46531BB342EFD2541C4B4641462020A0
:10399800B8472200F5E7F0B5CE46474680B585B072
:1039A800944698460C9D0D9C0EAB1B789946109A30
:1039B800119B129EB7071CD4002B0CD0F7070AD511
:1039C8004F46002F02D10C37374204D0013B02E0AA
:1039D80030272F550134944201D21F2CF8D9F7070C
:1039E80007D59C4205D21F2C03D830272F55013408
:1039F800F5E7F70615D5770505D4002C03D09442D2
:103A080024D09C4222D00F9A102A2BD00F9A102A29
:103A180030D00F9A022A35D01F2C02D830222A55CE
:103A280001341F2C05D84A46002A31D02D222A55A8
:103A38000134039602930194009543466246FFF7CA
:103A480053FF05B0C0BCB946B046F0BD621E012C9C
:103A580006D00F9F102F01D01400D4E7023CD2E704
:103A68001400D0E7B206D1D41F2CCFD878222A551B
:103A78000134D1E7B206CCD51F2CCAD858222A5512
:103A88000134C9E71F2CC7D860322A550134C3E76F
:103A9800720703D52B222A550134CAE73207C8D545
:103AA80020222A550134C4E7F0B5DE4657464E4673
:103AB8004546E0B593B081468A46089209931CAB07
:103AC80010CB1B789B461E9D219B9846002C03D14A
:103AD800102342469A4390468023DB0046461E4008
:103AE80042461A4212D0002C22D000260EE0303373
:103AF800D9B2771C0AAB99552900200000F0DCFFE9
:103B0800AC4216D31F2F14D83E0004002900200011
:103B180000F0D2FFCBB2092BE9D94246920605D56F
:103B28004121C918C9B20A39C9B2E2E76121F8E7E7
:103B3800270043460693209B05931F9B04930395F8
:103B48005B46029301970AAB0093099B089A51467A
:103B58004846FFF720FF13B0F0BCBB46B246A94663
:103B6800A046F0BDF0B5DE4657464E464546E0B5A0
:103B780095B0089009910A920B931E9E1F9C20AB4A
:103B88001B789B46229B9946239D269B9A46330089
:103B9800234303D1103352469A4392468023DB00D5
:103BA80057461F4052461A4219D0330023432DD09E
:103BB800002714E03033DAB27B1C98460CABDA5598
:103BC8004A462B003000210000F0B4FFA5421FD860
:103BD80019D043461F2B1BD8474606000C004A46FF
:103BE8002B003000210000F0A5FFD3B2092BE1D94A
:103BF8005246920605D54122D218D2B20A3AD2B21A
:103C0800DAE76122F8E7B145E3D901E000239846F5
:103C180053460693259B0593249B04934B46039395
:103C28005B460293434601930CAB00930B9B0A9AA5
:103C380009990898FFF7AFFE15B0F0BCBB46B2462D
:103C4800A946A046F0BD0000F0B5DE4657464E46F0
:103C58004546E0B591B083468A460C9298461A9C30
:103C680008941B9D099522002B002000290001F0D3
:103C7800ECF9002800D0E5E001225242D74B2000A1
:103C8800290001F0DDF9002800D0DBE001225242D2
:103C9800D34B2000290001F0BDF9002800D0D1E065
:103CA80000220023089E3000099D290001F0B2F986
:103CB800002800D0DDE00898099906900791802334
:103CC800DB001E9A1A400D921E9A1A4201D1062351
:103CD8001C930698079904000D000A000600024389
:103CE80000D1D1E0080D4005400DBE4CA44660440B
:103CF8000A03120BBC4B13431F0001F0B9F9BB4A6E
:103D0800BB4B01F044F9BB4ABB4B01F019F9040065
:103D18000D000022B94B3000390001F008F9B84A0B
:103D2800B84B01F034F902000B002000290001F023
:103D380007F901F0B5F9814601F09AF904000D0080
:103D4800B14AB24B01F023F90022B14B01F0F8F867
:103D580001F0A6F90600AF4AAF4B2000290001F098
:103D680016F904000D00300001F082F9AB4AAC4BA3
:103D780001F00DF902000B002000290001F0D7F82E
:103D880004000D0002000B0001F001F90A900B91EC
:103D9800A44BF31800261F0522002B002000290041
:103DA80001F0CEF80E900F9122002B000020802108
:103DB800C90501F0BCF804000D0000229A4B0A98CE
:103DC8000B9901F0C6F80022984B01F0B9F80200EF
:103DD8000B000A980B9901F0BCF80022944B01F0F3
:103DE800AFF802000B000A980B9901F0B2F8020034
:103DF8000B002000290001F0A3F802000B000E9828
:103E08000F9901F0A6F80022774B01F099F83200DB
:103E18003B0001F0BCF806000F0004000D00069AF4
:103E2800079B01F00DF9002830D001235B429C4626
:103E3800E14400227D4B3000390001F08AF804008B
:103E48000D0023E01E9B04931D9B03931C9B029370
:103E5800089A099B0092019343460C9A514658468A
:103E680000F0FCF811B0F0BCBB46B246A946A0462B
:103E7800F0BD0023002406930794069680231B06B2
:103E88009C46654407951AE7002399464B466333D9
:103E9800C62B1ED804261E9B1B0526D52B002343A4
:103EA8000FD0644A644B0698079901F0C1F80028BE
:103EB80079D00022614B0698079901F0ABF80028E9
:103EC80071D01C9B4B4506DD4A46981A431E1C932D
:103ED80003E00526DFE700231C938023DB001E9AFE
:103EE8001A431E920026002399461D9B9E4264D2C7
:103EF8009F1B02231E9A1A400A921E9A134202D04E
:103F0800002E00D000274B46002B07D022002B00A4
:103F18000698079901F01DF80690079100220023E2
:103F28000898099901F076F8002848D1444B1E9A60
:103F38001340049303971C9B0293069B079C0093D2
:103F4800019443460C9A5146584600F087F8002ED3
:103F580000D187E71E9B9B063DD54525441C43465B
:103F6800020051462800D8474B46DA179B185340A1
:103F780005220592013E0496002203920A3202921B
:103F88004A46D00F019000934346220051465846B6
:103F9800FFF78AFD0A9B002B00D163E702005F460A
:103FA8000C9E1D9D54E01C9B002B9ED00D9B002B4E
:103FB8009BD01C9B013B1C9397E7002799E7069C25
:103FC800079D2200290080200006844661440B00DA
:103FD80006920793AAE76525C0E7C046FFFFEF7F73
:103FE800FFFFEFFF01FCFFFF0000F03FFB799F5050
:103FF8001344D33FB3C8608B288AC63F0000F83FFC
:1040080061436F63A787D23F71A379094F930A4031
:104018000000E03F1655B5BBB16B0240EF39FAFE20
:10402800422EE63FFF03000000002C400000244021
:10403800000018402D431CEBE2361A3F80842E41C5
:10404800FFF7FFFF541C434651462020B847220083
:10405800931BAB42F6D3100004E7C046F0B5DE462A
:1040680057464E464546E0B595B0069007919346AB
:104078009946209F1E9A1F9B1000190000F0E5FF2B
:10408800002831D101225242BF4B1E981F9900F0DF
:10409800C1FF002837D101225242BC4B1E981F99FC
:1040A80000F0CEFF00283DD10022B94B1E981F9981
:1040B80000F0C6FF002850D10022B64B1E981F9969
:1040C80000F0A8FF002848D1002200231E981F995D
:1040D80000F0A0FF002850D100239846229B5B05E2
:1040E80000D4B6E0002458E0229B0393219B02935E
:1040F80003230193A84B00934B465A460799069809
:10410800FFF7F2FB0EE1229B0393219B029304230A
:104118000193A24B00934B465A4607990698FFF71E
:10412800E3FBFFE00423229A1A4022990B4210D0A5
:104138009B4B002A0FD004222299039121990291C6
:10414800019200934B465A4607990698FFF7CCFB15
:10415800E8E0944BEDE70322EEE7229B0493219BD2
:10416800039302971E9B1F9C009301944B465A464B
:1041780007990698FFF768FDD4E01E9A1F9B002058
:10418800002100F0D4FE1E901F9101239846A5E758
:104198000CAB30221A55013F01341F2C01D8092FCE
:1041A800F6D81E981F9900F07BFF050000F060FF0D
:1041B80002000B001E981F9900F0B9FEFA007A4B16
:1041C8009B181A685B680A920B9300F0E0FE08904F
:1041D800099100F089FF060000F046FF02000B007D
:1041E8000898099900F0A3FE0890099100226F4BE6
:1041F80000F026FF00282ED00136300000F034FFF2
:1042080002000B000A980B9900F00AFF002801D061
:1042180001350026002F2CD1280000F029FF0200CC
:104228000B001E981F9900F082FE06000F00002266
:104238005E4B00F0EFFE002846D100225B4B3000B9
:10424800390000F0FDFE00283ED1EB073CD50135D2
:104258003AE0062746E70022544B0898099900F0EF
:10426800D9FE0028D6D1002E01D0F307D2D50136C9
:10427800D0E7AA461F2C11D8013F0A21300000F0D0
:104288001BFC651C30310CAB19550A21300000F0BD
:1042980013FC092E0ED906002C00EBE755461F2CFF
:1042A8000CD87B1E002F09D00CAA302111551F00F5
:1042B8000134F4E72B0055461C00F0E71F2C03D807
:1042C8000CAB2E221A5501341F2C10D80A212800B5
:1042D80000F0CAFB661C30310CAB19550A212800C6
:1042E80000F0C2FB051E01D03400EDE734000323C3
:1042F800229A1340012B1CD01F2C06D84346002BB2
:1043080032D00CAB2D221A550134229B0393219BEA
:10431800029301940CAB00934B465A4607990698B2
:10432800FFF7E2FA15B0F0BCBB46B246A946A04674
:10433800F0BD219B002B13D04346002B02D10C3338
:1043480013420FD0219B013B2193190003E00CABD2
:1043580030221A5501348C42CED21F2CF7D9CBE724
:104368002199F8E72199F6E7229B5B0704D50CAB66
:104378002B221A550134C8E7229B1B07C5D50CAB65
:1043880020221A550134C0E7FFFFEFFFFFFFEF7F40
:1043980065CDCD4165CDCDC1BCC30020C0C30020D3
:1043A800B4C30020B0C30020A8C500200000E03F2F
:1043B800F0B5DE4657464E464546E0B593B08246D0
:1043C8008B4690461193002900D1EBE20027554611
:1043D800119B1878002800D1E7E2252809D07C1C19
:1043E80043463A005946A847119B013311932700C9
:1043F800EEE7013311930024119A11780B00203B4A
:10440800D8B2102803D88300D048C3589F460B0061
:10441800303BDBB2092B2CD92A292FD000230A9351
:10442800119B1A782E2A39D000239A46119A1378AC
:10443800683BD9B2122976D88B00C549CB589F461C
:1044480001231C4301321192D6E702231C43013297
:104458001192D1E704231C4301321192CCE70823BF
:104468001C4301321192C7E710231C4301321192F9
:10447800C2E711A8FFF726FA0A90D1E71C9B1A1D7C
:104488001C921868002804DB0A90119B01331193D1
:10449800C6E702231C4343420A93F6E78022D20070
:1044A80014435A1C11925A781300303BDBB2092B83
:1044B80004D92A2A07D000239A46B7E711A8FFF79C
:1044C80001FA8246B2E71C9B1A1D1C921868002844
:1044D80004DB8246119B01331193A7E70020F8E71C
:1044E80080235B002343511C119152786C2A01D020
:1044F8001C0018E0C0239B001C430131119112E0FD
:1045080080232343511C11915278682A01D01C0042
:1045180009E0C0231C430131119104E080235B00B2
:104528001C4301321192119B18780300253BDAB223
:10453800532A00D92CE29300864AD3589F468023F9
:104548009B001C4301321192EDE780235B001C4362
:1045580001321192E7E7782809D0582838D06F2817
:1045680038D0622838D010239C430A2600E0102651
:10457800582833D0692803D0642801D00C229443EA
:10458800630501D50122944369282AD0642828D0DC
:10459800A30500D59FE0E30500D5B8E0630600D485
:1045A800CAE01C9A111D1C911168FF220A4005944B
:1045B8000A9B0493534603930296002301930092A7
:1045C80043463A0059462800FFF76EFA070027E0ED
:1045D8001026CDE70826CBE70226C9E72022144398
:1045E800C8E7A30520D4E30550D4630666D51C9A12
:1045F800111D1C911168FF220A40D317D118594088
:1046080005940A9B0493534603930296D20F019292
:10461800009143463A0059462800FFF745FA07003B
:10462800119B01331193D3E61C9BDA1D07218A43A2
:10463800110008311C91116853689C46DB170C93D4
:104648000D930C9A0D9B100048400E906246534003
:104658000F930E980F990C9A0D9B801A99410E9002
:104668000F9108940A9B07935346069304960023D8
:1046780005936346DA0F02920090019143463A008F
:1046880059462800FFF76EFA0700C9E71C9A111D62
:104698001C911268D317D118594005940A9B0493AA
:1046A800534603930296D20F0192009143463A0073
:1046B80059462800FFF7F8F90700B1E7230605D5A2
:1046C8001C9A111D1C910023D25E96E71C9A111D9D
:1046D8001C91126891E71C9BDA1D07218A4311007F
:1046E80008311C9108940A9B079353460693049635
:1046F800002305930293136854680093019443467A
:104708003A0059462800FFF72DFA070088E71C9A57
:10471800111D1C9105940A9B04935346039302961A
:10472800002301931368009343463A005946280032
:10473800FFF7BAF9070073E723060DD51C9A111D78
:104748001C9112681204120C31E7C046C8C300203D
:104758000CC4002058C400201C9A111D1C9112681A
:1047680025E746281AD01C9B0733072293431A00D3
:1047780008321C9204940A9A0392524602925C6888
:104788001B680093019443463A0059462800FFF7F6
:1047980065FC0700119B0133119319E620231C4384
:1047A800E1E7672801D0472802D180231B011C4379
:1047B800452801D0472801D120231C431C9B0733DF
:1047C800072293431A0008321C9204940A9A03920F
:1047D800524602925C681B680093019443463A0073
:1047E80059462800FFF730FA0700119B013311934F
:1047F800EEE502231A002240924623421FD00124EC
:104808001C9B1A1D1C927A1C9146187843463A0044
:104818005946A8475346002B16D1119B01331193D3
:104828004F46D5E5561C434659462020B847230035
:1048380032005C1C9D42F5D83D001700E0E70123DB
:104848003A002F000A9DF4E74A46A9460A9D06E069
:10485800571C434659462020C84734003A00661C76
:10486800A542F5D84D469146D7E71C9B1A1D1C92C8
:104878001B6899465346002B00D1013B4E4601E088
:10488800013613003278002A02D05A1E002BF7D1C5
:104898004B46F21A10928023DB0026001E401C4271
:1048A80003D0524501D95346109302231A002240DF
:1048B8000B92234205D03A0037004C46A94655468C
:1048C80020E03A00109B5F46B3462E0006E0551CD8
:1048D800434639002020B04723002A005C1C0A996F
:1048E8009942F4D835005E46BB46109437004C46D2
:1048F800A946554606E01D000134561C4346594654
:10490800C84732002078002804D0002FF4D06B1E4E
:10491800002DF0D117004D460B9B002B03D1119BA6
:104928000133119354E50A9F109B06E0561C434639
:1049380059462020A847230032005C1C9F42F5D826
:104948001700ECE721231C431C9B1A1D1C921B68B3
:10495800009305940823049353460393102302936A
:104968000023019343463A0059462800FFF79CF874
:104978000700119B013311932AE57C1C43463A003A
:1049880059462520A847119B0133119327001FE59D
:104998007C1C43463A005946A847119B01331193A2
:1049A800270015E50A4B9A4610E5AA46474502D363
:1049B80043465A1E00E03A00434659460020D04775
:1049C800380013B0F0BCBB46B246A946A046F0BDBD
:1049D8008536002000B585B002900391012100932F
:1049E80013004A4202A90248FFF7E2FC05B000BDE5
:1049F8008736002001480421014B184760DA00205F
:104A080001480020014B1B681847000060DA0020AD
:104A180010B5010018231B8814221088984710BD70
:104A280010B5010018231B8816221088984710BD5E
:104A3800F0B5C64600B507000E00002501239846CC
:104A480000E00135B5420AD2AC003C192068FFF7F6
:104A5800DFFF20600028F4D100239846F1E74046A4
:104A680080BCB846F0BD0000124A936F9B0815D26F
:104A78009066D166002905D0FFE7FFE7FFE7516F91
:104A8800106F704704B580210906C21751400028ED
:104A980000D0C84306F0DAF8002104BDF0B5146E62
:104AA800556E576F166FFFF7E3FF14665566576725
:104AB8001667F0BD000000D0114A936F9B0813D20F
:104AC80010665166002905D0FFE7FFE7FFE7516F41
:104AD800106F704704B5002801D00020C04306F0CD
:104AE800B5F8002104BDC046F0B5146E556E576F79
:104AF800166FFFF7E5FF1466556657671667F0BD32
:104B0800000000D094464A4A926F9208624601D249
:104B180028E0C046F0B5464E346E756E776F366F36
:104B280000F020F89446424A14665566576716679F
:104B38006246F0BD94463E4A926F9208624601D2A0
:104B480054E0C046F0B53A4E346E756E776F366FE6
:104B580000F04CF89446364A14665566576716674F
:104B68006246F0BD002B24DB11D000293EDA00B5E7
:104B7800C943404200D1013100F038F8C9434042EE
:104B880000D10131DB43524200D1013300BD002A7C
:104B9800EBD1002801D1002905D00020C90FC90791
:104BA80001D1C043410800B506F050F800220023A7
:104BB80000BD00B500290ADBDB43524200D10133B6
:104BC80000F014F8C943404200D1013100BDC94387
:104BD800404200D10131DB43524200D1013300F0A1
:104BE80005F8DB43524200D1013300BD002923D12F
:104BF800002B18D1002A0CD0BC460D4F38667A66B7
:104C080000210023FFE7FFE7FFE77A6F386F674669
:104C18007047002801D00748010000B506F016F8D3
:104C28000022002300BD02000B0000200021704775
:104C3800000000D0FFFFFFFF002B00D0BFE0130CE7
:104C480028D1002AE7D080B4114F39667A66FFE789
:104C5800FFE730B4040C7B6F396F1B0423433B66BA
:104C68007A66FFE7FFE7FFE7C04684B27B6F3D6FD8
:104C78001B0423433B667A66FFE7FFE7C046002331
:104C88002C042D0C7A6F386F00196941B0BC70473D
:104C9800000000D0F0B594460025140E01D1120290
:104CA8000835140F01D112010435940F01D1920077
:104CB8000235D40F01D152000135D40B0134254FF0
:104CC8007C66254C3C660E0C93B2FFE7FFE7FFE7D6
:104CD8003C6F6643360C7703BE467343DF0B5B04B9
:104CE800C01AB941130C7343DB18C91ACE086643BE
:104CF800360CB64493B273431F0F1B01C01AB94157
:104D0800130C73431F0B1B05C01AB941860D8F0284
:104D18003E436643360C092D24DB520A7243801A3F
:104D28007703460A6643360C16235B1BDE40DF40DA
:104D3800BF1964466643821B70460435063301007A
:104D4800D940A840C01900D30131A24206D200239D
:104D5800F0BD0000000000D0FFFFFFFF121B013074
:104D6800F3D3F1E709277F1BFE406446A2B27243E2
:104D7800801A00D20139220C7243130C1204821AD1
:104D880099410B007046043513370100F940A840DB
:104D9800801900D30131002B02D1A2420AD2F0BD02
:104DA800013000D30131121BFAD2013BF8D1A242E3
:104DB80000D2F0BD013000D30131121BF7E7F0B586
:104DC8001C0C00D080E00CB400251C0A04D11B0286
:104DD800160E3343120208351C0B04D11B01160FA3
:104DE8003343120104359C0B04D19B00960F3343C7
:104DF80092000235DC0B02D192185B4101351C0090
:104E0800971864410134464F7C66464C3C660E0C4C
:104E1800FFE7FFE7FFE7C0463C6F6643360C7703C2
:104E2800BE4697B27743C01B00D20139C01B00D2DF
:104E380001399FB27743C91BC91B170C77437E04FE
:104E4800FF0B801BB941CE086643360C0C2D33DBB3
:104E5800B644120B1F053A431B0B97B27743C01B8E
:104E680000D201399FB27743C91B170C77433E0420
:104E78003F0C801BB941860D8F023E4366432927AC
:104E88007F1BFE400C3D7746AF40BF1930BCA2B235
:104E9800ABB272437343801A9941220C7243130CCC
:104EA8001204801A994102000B000137001BA94126
:104EB800F9D2781E0021F0BD0C277F1BFE407746F3
:104EC8007F0BAF40FF19E0E700245D1C07D0144FAB
:104ED8007D663966FFE7FFE7FFE7FFE73C6F95B2BE
:104EE8009EB265436643401BB141150C1E0C6543D9
:104EF800664336042F0C3E432D04401BB1419942B2
:104F080004D202000B0020000021F0BD01D1904224
:104F1800F7D3801A994101349942F2D3F6E7000099
:104F2800000000D0FFFFFFFF48404140484018B450
:104F38001B4B5B68FC46019308BD04DFD34F002080
:104F480018B4174B1B68FC46019308BD00DFDD4F02
:104F580000209446134A926F920809D2624618B408
:104F68000F4BDB68FC46019308BD0CDF955200200F
:104F78000C4AF0B5146E556E576F166F6246FFF700
:104F8800EEFF084A1466556657671667F0BD18B4F1
:104F9800034B9B68FC46019308BD08DF395100208C
:104FA80088290120000000D0FFB550404240504001
:104FB80059404B40594000E0FFB5154F4C00640D77
:104FC80003D0BC4204D10C0314D80020090D0905F4
:104FD8005C00640D03D0BC4204D11C030AD8002233
:104FE8001B0D1B0501264B4009D44B4003D58B42B2
:104FF80000D18242FFBD9942FCD19042FFBD0B43D4
:10500800DB1803431343F5D0C9434918FFBD00001B
:10501800FF07000000B5FFF7CFFF804100BDC04685
:1050280000B5FFF7C9FF01D9002000BD012000BD70
:1050380000B5FFF7B9FF01D9002000BD012000BD70
:1050480000B5FFF7B1FF804100BD012040054A00CF
:10505800121804D85A00121801D8002070470120ED
:1050680070470020704700000021002805D17047D4
:10507800C1174840401AFAD0C90713B5064B1B6838
:1050880098470CBC441CA2401005120B0349091B8D
:1050980009051943114310BD882A01201F04000087
:1050A80010B54C00620D8023D218DB00D21A5B05C4
:1050B8007E2A10DD9E3A13DACC17090349081943F2
:1050C8005242D140640001341532202A05DAD0401A
:1050D8000843604310BD002010BD0846604310BD62
:1050E800C80FC018013810BD18B4044B5B6AFC46E1
:1050F800019308BD24DF45540020000088290120C1
:1051080070B513231C78012C14D0012C14DC022C4C
:1051180002DC1F4A1F4B9A641F48FFF779FC1F4B9C
:10512800186070BD99001A481A4A885001331F2B1D
:10513800F8D9EAE70023FAE71948FFF771FC0500F8
:105148001848FFF76DFC023803789B007F2B19DDA8
:10515800802229000F4800F0ABFB022CD7D1124B5C
:105168001A88B5231B029A4209D1104B1A88104B92
:105178009A4204D10F4B1A880F4B9A42C7D000208D
:10518800FEF77AFB0D4B0E4A32210E48FEF7DAFA8B
:10519800994F0020882901204C330000882A0120DB
:1051A800534400005346000054380000D83800002B
:1051B800494600009C38000059460000F8C5002008
:1051C800B0C6002058C6002007B56046002800D1A8
:1051D80000BE01880A0A0230DF2AFAD1C9B2820861
:1051E80004D3028840880004104300E00068024AA3
:1051F8005050039007BD0000882901200FB403BC5C
:105208000CBCF0B50124E407634000E0F0B50C0DD8
:10521800CF0F661E3605891B640503D3C943404278
:1052280000D30131640D03D0661CF60A07D0E41BD5
:1052380000207F00791C89078912803C24031D0DFA
:10524800DF0F6E1E36059B1B6D0503D3DB435242F1
:1052580000D301336D0D03D06E1CF60A07D0ED1B89
:1052680000227F007B1C9B079B12803D2D032F1B78
:10527800661B58D4A446202E46DA20371400BC40BA
:105288001D00BD40F24033412A4380185941CB0FDD
:1052980005D0C943C043002264425041514162468F
:1052A8004D0D28D10D0D07D100281FD024194041DC
:1052B8004941013A0D0DF9D0640006D3013000D3FD
:1052C8000131002C01D140084000013A0BD4941C54
:1052D800E40A04D112051144DB071944F0BDD907CB
:1052E800204B194300E0D9070020F0BD0029DDD18B
:1052F800002CDBD1F0BD0132C6074008CD0728439A
:105308004908002EE1D0D9E73C2E29DA203E403763
:105318001400BC4000D00124F24014431A00BB40E2
:105328001C43D317ACE7AC46202F08DA203604001C
:10533800B4400D00B540F84039412843A5E73C2F5B
:105348000CDA203F40360400B44000D00124F84075
:1053580004430800B1400C43C117EAE710001900E4
:10536800002494E70000F07FF0B50C0D661E3605AA
:10537800891BE60A6405640D02D0651CED0A04D099
:10538800002001210905803C2403A4461C0D671E4A
:105398003F05DB1BE70A6405640D02D0651CED0AB6
:1053A80004D0002201231B05803C24037740644479
:1053B80097B484B296B27443070C7E43150C6F43BE
:1053C80080B26843361802D3012000043F18300425
:1053D800350C00197D41844688B29AB250430C0CB2
:1053E80062431F0C7C438EB27E43921902D301267E
:1053F8003604A4191604170C3618674101BC81B28B
:105408009AB25143040C62431B0C5C4380B258436C
:10541800121802D30120000424181004130C401899
:1054280063412D185E410020474106BC88B293B203
:1054380058430C0C6343120C544389B251435B1814
:1054480002D301210904641819041A0C09186241CD
:105458006D1856410020474118BCF902720D1143DE
:10546800F0026A0D1043ED020A0D03D16D19404197
:105478004941013B124E9B1B7600B3420ED26D0090
:1054880007D30130002671416646354301D14008F3
:1054980040001B05C918E4072144F0BD0BDA0133AD
:1054A80006D1013004D101314F0D01D04908F2E78E
:1054B800E1070020F0BD013631050020EBE70000D0
:1054C800FF030000F0B51C0D671E3F05DB1BE70A54
:1054D8006405640D02D0661CF60A04D0002201237C
:1054E8001B05803C2403D0252D060026F6432E6696
:1054F8001E096E66CE0FF619B44649004F0D02D04C
:105508007E1CF60A03D000200021403F3F033E1BCB
:10551800B600B444013F7F05C91B49082E6F013608
:1055280076089C02950D25437543ED137543AD131D
:1055380001356D10F603761B0CB4CC02450D2C43D7
:10554800A2B2B3B25A43270C7B43350C6F43A4B2C3
:105558006C431B1902D3012424043F191C041D0C9D
:10556800A4187D4124196D41009A91B2ACB26143EF
:10557800170C7C432B0C5F4392B25A43A41802D3F6
:1055880001221204BF182204230C52187B41019CEB
:105598006C431B19520ED9010A434401A01A81B267
:1055A800B2B2514303145A43360C734387B277435C
:1055B800D617D21900277E4136049B191704160CFA
:1055C8007F185E417316ED18F3010026803375418C
:1055D800A90F06D16400690AE8055B0A184309D2D5
:1055E8002FE00422944480337541A90AA8059B0A38
:1055F800184326D3404149412404009A019B0D00D9
:105608005543641B4343E41A95B286B27543170C9D
:105618007E43030C5F4392B25A43B61802D3012269
:105628001204BF183204330C52197B4152429C4178
:10563800002C02D40022013051414008CA0710430F
:10564800490802B06246D7079210084BD218084B97
:105658009A4203D212058918C919F0BD0020002A00
:1056680001DC3900F0BD01331905F5E7FD03000041
:10567800FE070000002200B5203200F004F8080000
:1056880000BD000000220B150AD410B5944600F0A6
:1056980031F81414013400DA0021CB17144C2047D8
:1056A8000020002170476244343A0CD40C2A07DAEF
:1056B80004009140904052422032D440214310BD12
:1056C800D843D94310BD203207D40C4694405242E7
:1056D80020321141D040204310BD0800C9172032A4
:1056E80003D452422032104110BD1800190010BDD9
:1056F800775400200A0DCC0F531E1B05C91A5205FA
:1057080003D3C943404200D30131520D03D0531C87
:10571800DB0A07D0121B00206400611C890789126C
:10572800803A1203014BD21A70470000FF030000B1
:1057380051434343C9188C46110C83B24B4310B4F0
:10574800040C614392B280B2504362431C041B0CA8
:10575800001910BC59411304120CC018514161447E
:105768007047000070B513231D782A48FFF758F9D1
:105778000400012D11D0012D09DDA31E1B789B000B
:105788007F2B40DD80222100234800F091F8234838
:10579800FFF73EF9224B186070BD542201001E48E5
:1057A80000F086F81F4B1A881F4B9A421CD1A7237A
:1057B8009B011A881D4B9A4216D11D4B1A881D4B06
:1057C8009A4211D11C4B1A8894239B019A420BD1FF
:1057D8001A4B1A881A4B9A4206D11A4B1A681A4B56
:1057E8009A4201D1152307E01848FEF745F89900B9
:1057F8001748094A885001331F2BF8D9144A064B19
:105808001A62DA61B7E7134B134A42211348FDF7CE
:1058180099FFC046534600008C2A01204C330000F3
:10582800882A0120EE290000C40F0000C20D0000E4
:10583800962B0000C0B50000182B0000CC2A0000F1
:1058480010B50000FC2C000051ED8764DCC200207C
:1058580031560020C4C6002050C70020F8C60020DA
:1058680007B56046002800D100BE01880A0A023048
:10587800DF2AFAD1C9B2820804D30288408800041A
:10588800104300E00068024A5050039007BD000032
:105898008C2A012001480421014B184770DA0020A6
:1058A80001480020014B1B681847000070DA0020EF
:1058B800014B5B681847000070DA002010B5030040
:1058C800080011001B68984710BD0000F8B50700D4
:1058D8000D001600437D002B02D0002400200CE0B0
:1058E80003681100280098472DE03B7D10E0022155
:1058F80015483B689847601C0134B44214DA002C00
:10590800F3DD2B19013B1B780D3B5A425341DBB2A7
:105918002A5D0A2AF0D1002BEED1A042E7DA211A3B
:1059280028183B689847E2E7B04203DA311A28188A
:105938003B689847002E06DDAD19013D2B780D3BDD
:105948005A4253413B75F8BDE0C7002070B50500C9
:105958000368002B16D00C4B1C6805E0290004C90D
:105968002000FFF7B3FF2469002C09D02368002B1F
:10597800F9D0064B1B68002BF0D0A342F3D1EDE71A
:1059880000232B6070BDC0466C22012074220120C8
:1059980070B505000C000B68802B05D021684B1CE6
:1059A80023606418257170BD0800FFF7CFFFF5E785
:1059B80010B5FCF7DBFC02000B1E0BDB0D480021C9
:1059C80012184B41002B0BDB002B0DDB0A4805F0AE
:1059D800CDF910BD094B0A4A3F210A48FDF7B2FE2E
:1059E80001225242084BEFE7044B054A3F21054884
:1059F800FDF7A8FE40420F00B4DA0020E8B7002007
:105A0800C8C7002004B80020FFFFFF7F10B5024878
:105A180005F0FAF910BDC046B4DA0020F0B5CE465C
:105A2800474680B583B006000D0090461C00FFF77E
:105A3800BFFF81466B1C05D0002C08D0194F1A4BAC
:105A48001C6807E0300005F003F90500F4E7174F7C
:105A5800F5E72469002C17D02368002BF9D0144BE4
:105A68001B68002B01D0A342F3D12A00310020008B
:105A7800B8474346002BECD06B46D91D0A230B7060
:105A880001222000B847E4E74B46002B07D16B1EE4
:105A98009D41E8B203B0C0BCB946B046F0BDFFF7BF
:105AA800B5FFF4E78D5600206C2201209D5600209A
:105AB8007422012010B5064B1C6801E09847246940
:105AC800002C03D06368002BF8D1F8E710BDC0465E
